{
  "contractName": "Bar",
  "abi": [
    {
      "constant": true,
      "inputs": [
        {
          "name": "",
          "type": "uint256"
        }
      ],
      "name": "messages",
      "outputs": [
        {
          "name": "id",
          "type": "uint256"
        },
        {
          "name": "content",
          "type": "string"
        }
      ],
      "payable": false,
      "stateMutability": "view",
      "type": "function",
      "signature": "0x0d80fefd"
    },
    {
      "constant": true,
      "inputs": [],
      "name": "msgCount",
      "outputs": [
        {
          "name": "",
          "type": "uint256"
        }
      ],
      "payable": false,
      "stateMutability": "view",
      "type": "function",
      "signature": "0x8f1a2810"
    },
    {
      "inputs": [],
      "payable": false,
      "stateMutability": "nonpayable",
      "type": "constructor",
      "signature": "constructor"
    },
    {
      "constant": false,
      "inputs": [
        {
          "name": "_content",
          "type": "string"
        }
      ],
      "name": "createMessage",
      "outputs": [],
      "payable": false,
      "stateMutability": "nonpayable",
      "type": "function",
      "signature": "0x198a2de9"
    }
  ],
  "bytecode": "0x60806040526000805534801561001457600080fd5b5060408051808201909152600b81527f48656c6c6f20576f726c64000000000000000000000000000000000000000000602082015261005b90640100000000610060810204565b610147565b600080546001908101808355604080518082018252828152602080820187815293865284815291909420845181559151805192936100a6939085019291909101906100ac565b50505050565b828054600181600116156101000203166002900490600052602060002090601f016020900481019282601f106100ed57805160ff191683800117855561011a565b8280016001018555821561011a579182015b8281111561011a5782518255916020019190600101906100ff565b5061012692915061012a565b5090565b61014491905b808211156101265760008155600101610130565b90565b61039f806101566000396000f3fe6080604052600436106100565763ffffffff7c01000000000000000000000000000000000000000000000000000000006000350416630d80fefd811461005b578063198a2de9146101045780638f1a2810146101b9575b600080fd5b34801561006757600080fd5b506100856004803603602081101561007e57600080fd5b50356101e0565b6040518083815260200180602001828103825283818151815260200191508051906020019080838360005b838110156100c85781810151838201526020016100b0565b50505050905090810190601f1680156100f55780820380516001836020036101000a031916815260200191505b50935050505060405180910390f35b34801561011057600080fd5b506101b76004803603602081101561012757600080fd5b81019060208101813564010000000081111561014257600080fd5b82018360208201111561015457600080fd5b8035906020019184600183028401116401000000008311171561017657600080fd5b91908080601f016020809104026020016040519081016040528093929190818152602001838380828437600092019190915250929550610286945050505050565b005b3480156101c557600080fd5b506101ce6102d2565b60408051918252519081900360200190f35b600160208181526000928352604092839020805481840180548651600296821615610100026000190190911695909504601f8101859004850286018501909652858552909491939290919083018282801561027c5780601f106102515761010080835404028352916020019161027c565b820191906000526020600020905b81548152906001019060200180831161025f57829003601f168201915b5050505050905082565b600080546001908101808355604080518082018252828152602080820187815293865284815291909420845181559151805192936102cc939085019291909101906102d8565b50505050565b60005481565b828054600181600116156101000203166002900490600052602060002090601f016020900481019282601f1061031957805160ff1916838001178555610346565b82800160010185558215610346579182015b8281111561034657825182559160200191906001019061032b565b50610352929150610356565b5090565b61037091905b80821115610352576000815560010161035c565b9056fea165627a7a7230582001f2b30fc3eadb7ed963ec78f335fc31705f1c2005f6bf8df732c16a38acb80f0029",
  "source": "pragma solidity ^0.5.0;\n\ncontract Bar {\n    uint public msgCount = 0; // state variable\n\n    // Data Model\n    struct Message {\n        uint id;\n        string content;\n        // string sender;\n    }\n\n    mapping(uint => Message) public messages;\n\n    constructor() public {\n        createMessage(\"Hello World\");\n    }\n\n    function createMessage(string memory _content) public {\n        msgCount ++;\n        messages[msgCount] = Message(msgCount, _content);\n    }\n}\n\n",
  "sourcePath": "/Users/vsiow/Documents/UCD/S2020/final-project-bar/eth-bar/contracts/Bar.sol",
  "compiler": {
    "name": "solc",
    "version": "0.5.0+commit.1d4f565a.Emscripten.clang"
  },
  "schemaVersion": "3.0.1",
  "updatedAt": "2020-05-21T21:24:03.468Z",
  "devdoc": {
    "methods": {}
  },
  "userdoc": {
    "methods": {}
  }
}