{
  "contractName": "Bar",
  "abi": [
    {
      "constant": true,
      "inputs": [],
      "name": "msgCount",
      "outputs": [
        {
          "name": "",
          "type": "uint256"
        }
      ],
      "payable": false,
      "stateMutability": "view",
      "type": "function",
      "signature": "0x8f1a2810"
    }
  ],
  "bytecode": "0x608060405260008055348015601357600080fd5b50609e806100226000396000f3fe608060405260043610603f576000357c0100000000000000000000000000000000000000000000000000000000900463ffffffff1680638f1a2810146044575b600080fd5b348015604f57600080fd5b506056606c565b6040518082815260200191505060405180910390f35b6000548156fea165627a7a72305820afd6e502bf0d31d29e6c4f0dd71fb060b31613b570b4be2a6d3d9cc3066f93ac0029",
  "source": "pragma solidity ^0.5.0;\n\ncontract Bar {\n    uint public msgCount = 0; // state variable\n}",
  "sourcePath": "/Users/vsiow/Documents/UCD/S2020/final-project-bar/eth-bar/contracts/Bar.sol",
  "compiler": {
    "name": "solc",
    "version": "0.5.0+commit.1d4f565a.Emscripten.clang"
  },
  "schemaVersion": "3.0.1",
  "updatedAt": "2020-05-21T20:20:19.628Z",
  "devdoc": {
    "methods": {}
  },
  "userdoc": {
    "methods": {}
  }
}