{
  "contractName": "Bar",
  "abi": [
    {
      "constant": true,
      "inputs": [],
      "name": "msgCount",
      "outputs": [
        {
          "name": "",
          "type": "uint256"
        }
      ],
      "payable": false,
      "stateMutability": "view",
      "type": "function",
      "signature": "0x8f1a2810"
    }
  ],
  "bytecode": "0x608060405260008055348015601357600080fd5b506099806100226000396000f3fe608060405260043610603e5763ffffffff7c01000000000000000000000000000000000000000000000000000000006000350416638f1a281081146043575b600080fd5b348015604e57600080fd5b5060556067565b60408051918252519081900360200190f35b6000548156fea165627a7a72305820c62e7ca82f97f0d8672d4dbf8cdfa6cf36a27296dd4a8d27f86fc956e38084830029",
  "source": "pragma solidity ^0.5.0;\n\ncontract Bar {\n    uint public msgCount = 0; // state variable\n}",
  "sourcePath": "/Users/vsiow/Documents/UCD/S2020/final-project-bar/eth-bar/contracts/Bar.sol",
  "compiler": {
    "name": "solc",
    "version": "0.5.0+commit.1d4f565a.Emscripten.clang"
  },
  "schemaVersion": "3.0.1",
  "updatedAt": "2020-05-21T21:04:40.635Z",
  "devdoc": {
    "methods": {}
  },
  "userdoc": {
    "methods": {}
  }
}